{
  "hex": "01000000fb3f935d0186f0b60c6f0d2dc250b5b19e9645759539d2190ffbfcc96acd575b81af0ffdb0000000006a473044022062fa8bbcaef25b746e1e727ba3dd3dc15468cd08cbcd1ee1d8c5e170e2cecac8022033e1abf152111bc1297c3a340a012551d0505b6c333f8374a4033c94bf707c8c01210214aeab5ca440a017044fb26172c3fd5925fe4187a61784115146aa61631ade33ffffffff0143e01a000000000016001479eb81115d7a273edf737c0e6cbaed11200419b400000000",
  "txid": "0ef0e8e1dfa7367fabe41d28ef9feebf307a294bbde904891956b1225f45698e",
  "hash": "0ef0e8e1dfa7367fabe41d28ef9feebf307a294bbde904891956b1225f45698e",
  "version": 1,
  "time": 1569932237,
  "size": 192,
  "vsize": 192,
  "locktime": 0,
  "vin": [
     {
        "txid": "b0fd0faf815b57cd6ac9fcfb0f19d239957545969eb1b550c22d0d6f0cb6f086",
        "vout": 0,
        "scriptSig": {
        "asm": "3044022062fa8bbcaef25b746e1e727ba3dd3dc15468cd08cbcd1ee1d8c5e170e2cecac8022033e1abf152111bc1297c3a340a012551d0505b6c333f8374a4033c94bf707c8c[ALL] 0214aeab5ca440a017044fb26172c3fd5925fe4187a61784115146aa61631ade33",
            "hex": "473044022062fa8bbcaef25b746e1e727ba3dd3dc15468cd08cbcd1ee1d8c5e170e2cecac8022033e1abf152111bc1297c3a340a012551d0505b6c333f8374a4033c94bf707c8c01210214aeab5ca440a017044fb26172c3fd5925fe4187a61784115146aa61631ade33"
        },
        "sequence": 4294967295
    }
  ],
  "vout": [
    {
      "value": 1761347,
       "n": 0,
       "scriptPubKey": {
           "asm": "0 79eb81115d7a273edf737c0e6cbaed11200419b4",
           "hex": "001479eb81115d7a273edf737c0e6cbaed11200419b4",
           "reqSigs": 1,
           "type": "witness_v0_keyhash",
           "addresses": [
              "pc1q084czy2a0gnnahmn0s8xewhdzysqgxd5rm35uc"
           ]
        }
    }
  ],
  "blockhash": "d1472c26229f90b8589d331aa47ba9023cb953b92dce342c753e7a6b3431bf1e",
  "confirmations": 124209,
  "blocktime": 1569932237
 }