{
  "blockhash": "736d9f1978a5aec9654ddc9b4d46484c5947674505cf22f641d370b4217faf24",
  "blocktime": 1628850134,
  "confirmations": 1374,
  "hash": "3daec2254a376d3678c9f8c4b5365e8a6332cbd681248951b69b93c16f6512c2",
  "hex": "0300000000010154c28a81d488cd09a071ee9c35cf02c1d3cfddfa4cb46a0ebba055956d4179680000000000feffffff01f0921dd20500000016001471d4c1dc3479f1f4b28887ad6cca9969acc25a310247304402207096f5249a6f8674a7aaf809225afb629c3981622ae3608e65a2b4b8db190702022034aca84aa2e2ea4d1f5e36bd500b8ce4cf224684de6e9bf5f0ec3b381fa45e6c012103fc3e13c8ff2368415ddea7df16ba17848db1aeec946bad793eac2d0b976930f657c80600",
  "locktime": 444503,
  "size": 191,
  "time": 1628850134,
  "txid": "dd556932a5530908f3cf93fb3cb501b8567b88e434ae16bc409dc3aeff9b54cd",
  "version": 3,
  "vin": [
    {
      "scriptSig": {
        "asm": "",
        "hex": ""
      },
      "sequence": 4294967294,
      "txid": "6879416d9555a0bb0e6ab44cfaddcfd3c102cf359cee71a009cd88d4818ac254",
      "txinwitness": [
        "304402207096f5249a6f8674a7aaf809225afb629c3981622ae3608e65a2b4b8db190702022034aca84aa2e2ea4d1f5e36bd500b8ce4cf224684de6e9bf5f0ec3b381fa45e6c01",
        "03fc3e13c8ff2368415ddea7df16ba17848db1aeec946bad793eac2d0b976930f6"
      ],
      "vout": 0
    }
  ],
  "vout": [
    {
      "n": 0,
      "scriptPubKey": {
        "addresses": [
          "tpc1qw82vrhp508clfv5gs7kkej5edxkvyk3378qaey"
        ],
        "asm": "0 71d4c1dc3479f1f4b28887ad6cca9969acc25a31",
        "hex": "001471d4c1dc3479f1f4b28887ad6cca9969acc25a31",
        "reqSigs": 1,
        "type": "witness_v0_keyhash"
      },
      "value": 24999990000
    }
  ],
  "vsize": 191,
  "weight": 764
}